{
  "contractName": "OnlineStore",
  "abi": [
    {
      "inputs": [],
      "stateMutability": "nonpayable",
      "type": "constructor"
    },
    {
      "anonymous": false,
      "inputs": [
        {
          "indexed": false,
          "internalType": "uint256",
          "name": "productId",
          "type": "uint256"
        },
        {
          "indexed": false,
          "internalType": "uint256",
          "name": "quantity",
          "type": "uint256"
        },
        {
          "indexed": false,
          "internalType": "uint256",
          "name": "price",
          "type": "uint256"
        },
        {
          "indexed": false,
          "internalType": "address",
          "name": "buyerAddress",
          "type": "address"
        }
      ],
      "name": "NewSale",
      "type": "event"
    },
    {
      "inputs": [
        {
          "internalType": "address",
          "name": "",
          "type": "address"
        }
      ],
      "name": "authorizedAccounts",
      "outputs": [
        {
          "internalType": "bool",
          "name": "",
          "type": "bool"
        }
      ],
      "stateMutability": "view",
      "type": "function",
      "constant": true
    },
    {
      "inputs": [],
      "name": "owner",
      "outputs": [
        {
          "internalType": "address payable",
          "name": "",
          "type": "address"
        }
      ],
      "stateMutability": "view",
      "type": "function",
      "constant": true
    },
    {
      "inputs": [
        {
          "internalType": "address",
          "name": "_account",
          "type": "address"
        },
        {
          "internalType": "bool",
          "name": "_authorized",
          "type": "bool"
        }
      ],
      "name": "setAuthorizedAccount",
      "outputs": [],
      "stateMutability": "nonpayable",
      "type": "function"
    },
    {
      "inputs": [
        {
          "internalType": "uint256",
          "name": "_productId",
          "type": "uint256"
        },
        {
          "internalType": "uint256",
          "name": "_quantity",
          "type": "uint256"
        },
        {
          "internalType": "uint256",
          "name": "_price",
          "type": "uint256"
        },
        {
          "internalType": "address payable",
          "name": "_buyerAddress",
          "type": "address"
        }
      ],
      "name": "storeSale",
      "outputs": [],
      "stateMutability": "payable",
      "type": "function",
      "payable": true
    },
    {
      "inputs": [],
      "name": "getTotalSales",
      "outputs": [
        {
          "components": [
            {
              "internalType": "uint256",
              "name": "productId",
              "type": "uint256"
            },
            {
              "internalType": "uint256",
              "name": "quantity",
              "type": "uint256"
            },
            {
              "internalType": "uint256",
              "name": "price",
              "type": "uint256"
            },
            {
              "internalType": "address",
              "name": "buyerAddress",
              "type": "address"
            }
          ],
          "internalType": "struct OnlineStore.Sale[]",
          "name": "",
          "type": "tuple[]"
        }
      ],
      "stateMutability": "view",
      "type": "function",
      "constant": true
    }
  ],
  "bytecode": "0x608060405234801561001057600080fd5b5033600160006101000a81548173ffffffffffffffffffffffffffffffffffffffff021916908373ffffffffffffffffffffffffffffffffffffffff160217905550610c10806100616000396000f3fe60806040526004361061004a5760003560e01c80632156a96c1461004f57806324ba58841461007a578063273373ea146100b75780638da5cb5b146100e0578063fe6220511461010b575b600080fd5b34801561005b57600080fd5b50610064610127565b6040516100719190610939565b60405180910390f35b34801561008657600080fd5b506100a1600480360381019061009c9190610625565b6101fa565b6040516100ae919061095b565b60405180910390f35b3480156100c357600080fd5b506100de60048036038101906100d9919061064e565b61021a565b005b3480156100ec57600080fd5b506100f5610305565b604051610102919061091e565b60405180910390f35b6101256004803603810190610120919061068a565b61032b565b005b60606000805480602002602001604051908101604052809291908181526020016000905b828210156101f157838290600052602060002090600402016040518060800160405290816000820154815260200160018201548152602001600282015481526020016003820160009054906101000a900473ffffffffffffffffffffffffffffffffffffffff1673ffffffffffffffffffffffffffffffffffffffff1673ffffffffffffffffffffffffffffffffffffffff16815250508152602001906001019061014b565b50505050905090565b60026020528060005260406000206000915054906101000a900460ff1681565b600160009054906101000a900473ffffffffffffffffffffffffffffffffffffffff1673ffffffffffffffffffffffffffffffffffffffff163373ffffffffffffffffffffffffffffffffffffffff16146102aa576040517f08c379a00000000000000000000000000000000000000000000000000000000081526004016102a190610996565b60405180910390fd5b80600260008473ffffffffffffffffffffffffffffffffffffffff1673ffffffffffffffffffffffffffffffffffffffff16815260200190815260200160002060006101000a81548160ff0219169083151502179055505050565b600160009054906101000a900473ffffffffffffffffffffffffffffffffffffffff1681565b600260003373ffffffffffffffffffffffffffffffffffffffff1673ffffffffffffffffffffffffffffffffffffffff16815260200190815260200160002060009054906101000a900460ff16806103d05750600160009054906101000a900473ffffffffffffffffffffffffffffffffffffffff1673ffffffffffffffffffffffffffffffffffffffff163373ffffffffffffffffffffffffffffffffffffffff16145b61040f576040517f08c379a0000000000000000000000000000000000000000000000000000000008152600401610406906109b6565b60405180910390fd5b828261041b9190610a65565b341461045c576040517f08c379a000000000000000000000000000000000000000000000000000000000815260040161045390610976565b60405180910390fd5b600060405180608001604052808681526020018581526020018481526020018373ffffffffffffffffffffffffffffffffffffffff16815250908060018154018082558091505060019003906000526020600020906004020160009091909190915060008201518160000155602082015181600101556040820151816002015560608201518160030160006101000a81548173ffffffffffffffffffffffffffffffffffffffff021916908373ffffffffffffffffffffffffffffffffffffffff1602179055505050600160009054906101000a900473ffffffffffffffffffffffffffffffffffffffff1673ffffffffffffffffffffffffffffffffffffffff166108fc349081150290604051600060405180830381858888f1935050505015801561058d573d6000803e3d6000fd5b507fa63ba97813158a020e1f42e9f521fb49a76650668a8548c9441bcebe044bcf20848484846040516105c394939291906109d6565b60405180910390a150505050565b6000813590506105e081610b7e565b92915050565b6000813590506105f581610b95565b92915050565b60008135905061060a81610bac565b92915050565b60008135905061061f81610bc3565b92915050565b60006020828403121561063757600080fd5b6000610645848285016105d1565b91505092915050565b6000806040838503121561066157600080fd5b600061066f858286016105d1565b9250506020610680858286016105fb565b9150509250929050565b600080600080608085870312156106a057600080fd5b60006106ae87828801610610565b94505060206106bf87828801610610565b93505060406106d087828801610610565b92505060606106e1878288016105e6565b91505092959194509250565b60006106f983836108ab565b60808301905092915050565b61070e81610b19565b82525050565b61071d81610ad1565b82525050565b61072c81610abf565b82525050565b600061073d82610a2b565b6107478185610a43565b935061075283610a1b565b8060005b8381101561078357815161076a88826106ed565b975061077583610a36565b925050600181019050610756565b5085935050505092915050565b61079981610ae3565b82525050565b60006107ac602883610a54565b91507f496e73756666696369656e742045746865722073656e7420666f72207468652060008301527f70757263686173650000000000000000000000000000000000000000000000006020830152604082019050919050565b6000610812602583610a54565b91507f4f6e6c7920746865206f776e65722063616e20617574686f72697a652061636360008301527f6f756e74730000000000000000000000000000000000000000000000000000006020830152604082019050919050565b6000610878600e83610a54565b91507f4e6f7420617574686f72697a65640000000000000000000000000000000000006000830152602082019050919050565b6080820160008201516108c16000850182610900565b5060208201516108d46020850182610900565b5060408201516108e76040850182610900565b5060608201516108fa6060850182610723565b50505050565b61090981610b0f565b82525050565b61091881610b0f565b82525050565b60006020820190506109336000830184610714565b92915050565b600060208201905081810360008301526109538184610732565b905092915050565b60006020820190506109706000830184610790565b92915050565b6000602082019050818103600083015261098f8161079f565b9050919050565b600060208201905081810360008301526109af81610805565b9050919050565b600060208201905081810360008301526109cf8161086b565b9050919050565b60006080820190506109eb600083018761090f565b6109f8602083018661090f565b610a05604083018561090f565b610a126060830184610705565b95945050505050565b6000819050602082019050919050565b600081519050919050565b6000602082019050919050565b600082825260208201905092915050565b600082825260208201905092915050565b6000610a7082610b0f565b9150610a7b83610b0f565b9250817fffffffffffffffffffffffffffffffffffffffffffffffffffffffffffffffff0483118215151615610ab457610ab3610b4f565b5b828202905092915050565b6000610aca82610aef565b9050919050565b6000610adc82610aef565b9050919050565b60008115159050919050565b600073ffffffffffffffffffffffffffffffffffffffff82169050919050565b6000819050919050565b6000610b2482610b2b565b9050919050565b6000610b3682610b3d565b9050919050565b6000610b4882610aef565b9050919050565b7f4e487b7100000000000000000000000000000000000000000000000000000000600052601160045260246000fd5b610b8781610abf565b8114610b9257600080fd5b50565b610b9e81610ad1565b8114610ba957600080fd5b50565b610bb581610ae3565b8114610bc057600080fd5b50565b610bcc81610b0f565b8114610bd757600080fd5b5056fea264697066735822122017483fd4c725d85481e285eb25a234d13a240543fb409613d84b1c2750ca11db64736f6c63430008000033",
  "immutableReferences": {},
  "source": "// SPDX-License-Identifier: MIT\npragma solidity ^0.8.0;\n\ncontract OnlineStore {\n    // Private data structure to store sales\n    struct Sale {\n        uint productId;\n        uint quantity;\n        uint price;\n        address buyerAddress;\n    }\n\n    // Private array to store all sales\n    Sale[] private sales;\n\n    // Contract owner address\n    address payable public owner;\n\n    // Mapping to control authorized accounts\n    mapping(address => bool) public authorizedAccounts;\n\n    // Event to log a new sale\n    event NewSale(\n        uint productId,\n        uint quantity,\n        uint price,\n        address buyerAddress\n    );\n\n    // Constructor to set the contract owner\n    constructor() {\n        owner = payable(msg.sender);\n    }\n\n    // Modifier to check if the account is authorized\n    modifier onlyAuthorized() {\n        require(\n            authorizedAccounts[msg.sender] || msg.sender == owner,\n            \"Not authorized\"\n        );\n        _;\n    }\n\n    // Function to add or remove an authorized account\n    function setAuthorizedAccount(address _account, bool _authorized) public {\n        require(msg.sender == owner, \"Only the owner can authorize accounts\");\n        authorizedAccounts[_account] = _authorized;\n    }\n\n    // Function to store a sale\n    function storeSale(\n        uint _productId,\n        uint _quantity,\n        uint _price,\n        address payable _buyerAddress\n    ) public payable onlyAuthorized {\n        require(\n            msg.value == _price * _quantity,\n            \"Insufficient Ether sent for the purchase\"\n        );\n\n        sales.push(\n            Sale({\n                productId: _productId,\n                quantity: _quantity,\n                price: _price,\n                buyerAddress: _buyerAddress\n            })\n        );\n\n        // Transfer the Ether to the owner\n        owner.transfer(msg.value);\n\n        emit NewSale(_productId, _quantity, _price, _buyerAddress);\n    }\n\n    // Function to retrieve all sales\n    function getTotalSales() public view returns (Sale[] memory) {\n        return sales;\n    }\n}\n",
  "sourcePath": "/home/iago/dev/study/cic/20241/tacii/eth_ecommerce/pay_with_eth/contracts/main.sol",
  "compiler": {
    "name": "solc",
    "version": "0.8.0+commit.c7dfd78e.Emscripten.clang"
  },
  "schemaVersion": "3.4.16",
  "updatedAt": "2024-06-16T19:05:27.082Z",
  "networkType": "ethereum",
  "devdoc": {
    "kind": "dev",
    "methods": {},
    "version": 1
  },
  "userdoc": {
    "kind": "user",
    "methods": {},
    "version": 1
  }
}