{
  "contractName": "OnlineStore",
  "abi": [
    {
      "inputs": [],
      "stateMutability": "nonpayable",
      "type": "constructor"
    },
    {
      "anonymous": false,
      "inputs": [
        {
          "indexed": false,
          "internalType": "uint256",
          "name": "productId",
          "type": "uint256"
        },
        {
          "indexed": false,
          "internalType": "uint256",
          "name": "quantity",
          "type": "uint256"
        },
        {
          "indexed": false,
          "internalType": "uint256",
          "name": "price",
          "type": "uint256"
        },
        {
          "indexed": false,
          "internalType": "address",
          "name": "buyerAddress",
          "type": "address"
        }
      ],
      "name": "NewSale",
      "type": "event"
    },
    {
      "inputs": [
        {
          "internalType": "address",
          "name": "",
          "type": "address"
        }
      ],
      "name": "authorizedAccounts",
      "outputs": [
        {
          "internalType": "bool",
          "name": "",
          "type": "bool"
        }
      ],
      "stateMutability": "view",
      "type": "function",
      "constant": true
    },
    {
      "inputs": [],
      "name": "owner",
      "outputs": [
        {
          "internalType": "address",
          "name": "",
          "type": "address"
        }
      ],
      "stateMutability": "view",
      "type": "function",
      "constant": true
    },
    {
      "inputs": [
        {
          "internalType": "address",
          "name": "_account",
          "type": "address"
        },
        {
          "internalType": "bool",
          "name": "_authorized",
          "type": "bool"
        }
      ],
      "name": "setAuthorizedAccount",
      "outputs": [],
      "stateMutability": "nonpayable",
      "type": "function"
    },
    {
      "inputs": [
        {
          "internalType": "uint256",
          "name": "_productId",
          "type": "uint256"
        },
        {
          "internalType": "uint256",
          "name": "_quantity",
          "type": "uint256"
        },
        {
          "internalType": "uint256",
          "name": "_price",
          "type": "uint256"
        },
        {
          "internalType": "address",
          "name": "_buyerAddress",
          "type": "address"
        }
      ],
      "name": "storeSale",
      "outputs": [],
      "stateMutability": "nonpayable",
      "type": "function"
    },
    {
      "inputs": [],
      "name": "getTotalSales",
      "outputs": [
        {
          "components": [
            {
              "internalType": "uint256",
              "name": "productId",
              "type": "uint256"
            },
            {
              "internalType": "uint256",
              "name": "quantity",
              "type": "uint256"
            },
            {
              "internalType": "uint256",
              "name": "price",
              "type": "uint256"
            },
            {
              "internalType": "address",
              "name": "buyerAddress",
              "type": "address"
            }
          ],
          "internalType": "struct OnlineStore.Sale[]",
          "name": "",
          "type": "tuple[]"
        }
      ],
      "stateMutability": "view",
      "type": "function",
      "constant": true
    }
  ],
  "bytecode": "0x608060405234801561001057600080fd5b5033600160006101000a81548173ffffffffffffffffffffffffffffffffffffffff021916908373ffffffffffffffffffffffffffffffffffffffff1602179055506109a1806100616000396000f3fe608060405234801561001057600080fd5b50600436106100575760003560e01c80632156a96c1461005c57806324ba58841461007a578063273373ea146100aa5780638da5cb5b146100c6578063fe622051146100e4575b600080fd5b610064610100565b60405161007191906107d2565b60405180910390f35b610094600480360381019061008f9190610533565b6101d3565b6040516100a191906107f4565b60405180910390f35b6100c460048036038101906100bf919061055c565b6101f3565b005b6100ce6102de565b6040516100db91906107b7565b60405180910390f35b6100fe60048036038101906100f99190610598565b610304565b005b60606000805480602002602001604051908101604052809291908181526020016000905b828210156101ca57838290600052602060002090600402016040518060800160405290816000820154815260200160018201548152602001600282015481526020016003820160009054906101000a900473ffffffffffffffffffffffffffffffffffffffff1673ffffffffffffffffffffffffffffffffffffffff1673ffffffffffffffffffffffffffffffffffffffff168152505081526020019060010190610124565b50505050905090565b60026020528060005260406000206000915054906101000a900460ff1681565b600160009054906101000a900473ffffffffffffffffffffffffffffffffffffffff1673ffffffffffffffffffffffffffffffffffffffff163373ffffffffffffffffffffffffffffffffffffffff1614610283576040517f08c379a000000000000000000000000000000000000000000000000000000000815260040161027a9061080f565b60405180910390fd5b80600260008473ffffffffffffffffffffffffffffffffffffffff1673ffffffffffffffffffffffffffffffffffffffff16815260200190815260200160002060006101000a81548160ff0219169083151502179055505050565b600160009054906101000a900473ffffffffffffffffffffffffffffffffffffffff1681565b600260003373ffffffffffffffffffffffffffffffffffffffff1673ffffffffffffffffffffffffffffffffffffffff16815260200190815260200160002060009054906101000a900460ff16806103a95750600160009054906101000a900473ffffffffffffffffffffffffffffffffffffffff1673ffffffffffffffffffffffffffffffffffffffff163373ffffffffffffffffffffffffffffffffffffffff16145b6103e8576040517f08c379a00000000000000000000000000000000000000000000000000000000081526004016103df9061082f565b60405180910390fd5b600060405180608001604052808681526020018581526020018481526020018373ffffffffffffffffffffffffffffffffffffffff16815250908060018154018082558091505060019003906000526020600020906004020160009091909190915060008201518160000155602082015181600101556040820151816002015560608201518160030160006101000a81548173ffffffffffffffffffffffffffffffffffffffff021916908373ffffffffffffffffffffffffffffffffffffffff16021790555050507fa63ba97813158a020e1f42e9f521fb49a76650668a8548c9441bcebe044bcf20848484846040516104e6949392919061084f565b60405180910390a150505050565b60008135905061050381610926565b92915050565b6000813590506105188161093d565b92915050565b60008135905061052d81610954565b92915050565b60006020828403121561054557600080fd5b6000610553848285016104f4565b91505092915050565b6000806040838503121561056f57600080fd5b600061057d858286016104f4565b925050602061058e85828601610509565b9150509250929050565b600080600080608085870312156105ae57600080fd5b60006105bc8782880161051e565b94505060206105cd8782880161051e565b93505060406105de8782880161051e565b92505060606105ef878288016104f4565b91505092959194509250565b60006106078383610744565b60808301905092915050565b61061c816108de565b82525050565b61062b816108de565b82525050565b600061063c826108a4565b61064681856108bc565b935061065183610894565b8060005b8381101561068257815161066988826105fb565b9750610674836108af565b925050600181019050610655565b5085935050505092915050565b610698816108f0565b82525050565b60006106ab6025836108cd565b91507f4f6e6c7920746865206f776e65722063616e20617574686f72697a652061636360008301527f6f756e74730000000000000000000000000000000000000000000000000000006020830152604082019050919050565b6000610711600e836108cd565b91507f4e6f7420617574686f72697a65640000000000000000000000000000000000006000830152602082019050919050565b60808201600082015161075a6000850182610799565b50602082015161076d6020850182610799565b5060408201516107806040850182610799565b5060608201516107936060850182610613565b50505050565b6107a28161091c565b82525050565b6107b18161091c565b82525050565b60006020820190506107cc6000830184610622565b92915050565b600060208201905081810360008301526107ec8184610631565b905092915050565b6000602082019050610809600083018461068f565b92915050565b600060208201905081810360008301526108288161069e565b9050919050565b6000602082019050818103600083015261084881610704565b9050919050565b600060808201905061086460008301876107a8565b61087160208301866107a8565b61087e60408301856107a8565b61088b6060830184610622565b95945050505050565b6000819050602082019050919050565b600081519050919050565b6000602082019050919050565b600082825260208201905092915050565b600082825260208201905092915050565b60006108e9826108fc565b9050919050565b60008115159050919050565b600073ffffffffffffffffffffffffffffffffffffffff82169050919050565b6000819050919050565b61092f816108de565b811461093a57600080fd5b50565b610946816108f0565b811461095157600080fd5b50565b61095d8161091c565b811461096857600080fd5b5056fea26469706673582212205a6bc17f803ed9e43c1ac86a9d578eaa503e62513a7d084dc8f3dab3f70b9e3d64736f6c63430008000033",
  "immutableReferences": {},
  "source": "// SPDX-License-Identifier: MIT\npragma solidity ^0.8.0;\n\ncontract OnlineStore {\n    // Private data structure to store sales\n    struct Sale {\n        uint productId;\n        uint quantity;\n        uint price;\n        address buyerAddress;\n    }\n\n    // Private array to store all sales\n    Sale[] private sales;\n\n    // Contract owner address\n    address public owner;\n\n    // Mapping to control authorized accounts\n    mapping(address => bool) public authorizedAccounts;\n\n    // Event to log a new sale\n    event NewSale(\n        uint productId,\n        uint quantity,\n        uint price,\n        address buyerAddress\n    );\n\n    // Constructor to set the contract owner\n    constructor() {\n        owner = msg.sender;\n    }\n\n    // Modifier to check if the account is authorized\n    modifier onlyAuthorized() {\n        require(\n            authorizedAccounts[msg.sender] || msg.sender == owner,\n            \"Not authorized\"\n        );\n        _;\n    }\n\n    // Function to add or remove an authorized account\n    function setAuthorizedAccount(address _account, bool _authorized) public {\n        require(msg.sender == owner, \"Only the owner can authorize accounts\");\n        authorizedAccounts[_account] = _authorized;\n    }\n\n    // Function to store a sale\n    function storeSale(\n        uint _productId,\n        uint _quantity,\n        uint _price,\n        address _buyerAddress\n    ) public onlyAuthorized {\n        sales.push(\n            Sale({\n                productId: _productId,\n                quantity: _quantity,\n                price: _price,\n                buyerAddress: _buyerAddress\n            })\n        );\n        emit NewSale(_productId, _quantity, _price, _buyerAddress);\n    }\n\n    // Function to retrieve all sales\n    function getTotalSales() public view returns (Sale[] memory) {\n        return sales;\n    }\n}\n",
  "sourcePath": "/home/iago/dev/study/cic/20241/tacii/pay_with_eth/contracts/main.sol",
  "compiler": {
    "name": "solc",
    "version": "0.8.0+commit.c7dfd78e.Emscripten.clang"
  },
  "schemaVersion": "3.4.16",
  "updatedAt": "2024-06-08T21:58:23.013Z",
  "networkType": "ethereum",
  "devdoc": {
    "kind": "dev",
    "methods": {},
    "version": 1
  },
  "userdoc": {
    "kind": "user",
    "methods": {},
    "version": 1
  }
}